:020000040800F2
:1000000000000120ED3E0008F9390008FB39000826
:10001000FD390008FF390008013A0008000000001F
:10002000000000000000000000000000033A00088B
:10003000053A000800000000073A0008093A0008E5
:100040003D3F00083D3F00083D3F00083D3F0008A0
:100050003D3F00083D3F00083D3F00083D3F000890
:100060003D3F00083D3F00083D3F00083D3F000880
:100070003D3F00083D3F00083D3F00083D3F000870
:100080003D3F00083D3F00083D3F00083D3F000860
:100090000D3A00083D3F00083D3F00083D3F000885
:1000A0003D3F00083D3F00083D3F00083D3F000840
:1000B0003D3F000800000000000000003D3F000838
:1000C0003D3F00083D3F00083D3F00083D3F000820
:1000D0003D3F00083D3F00083D3F00083D3F000810
:1000E0003D3F00083D3F0008000000000000000008
:1000F0000000000000000000000000000000000000
:10010000000000003D3F0008000000003D3F0008E7
:1001100000000000000000003D3F00083D3F0008D7
:100120003D3F00083D3F00083D3F00083D3F0008BF
:100130003D3F00080000000000000000000000003B
:100140003D3F00083D3F00083D3F0008193A0008C8
:100150003D3F00083D3F00083D3F00083D3F00088F
:100160003D3F00083D3F00083D3F00080000000003
:100170003D3F00083D3F00083D3F000800000000F3
:0C0180003D3F00083D3F00083D3F0008E7
:1001900010B5054C237833B9044B13B10448AFF3C1
:1001A00000800123237010BDCC010020000000005E
:1001B000F047000808B5034B1BB103490348AFF3F0
:1001C000008008BD00000000D0010020F0470008BA
:1001D000034613F8012B002AFBD1181A0138704787
:1001E00001F0FF01102A2BDB10F0070F08D010F8E8
:1001F000013B013A8B422DD010F0070F42B3F6D1EC
:10020000F0B441EA012141EA014122F007047FF004
:1002100000070023F0E80256083C85EA010586EA5B
:10022000010685FA47F5A3FA87F586FA47F6A5FA97
:1002300087F68EB9EED1F0BC01F0FF0102F00702A3
:1002400032B110F8013B013A83EA010313B1F8D14E
:100250000020704701387047002D06BF354603382F
:10026000073815F0010F07D1013015F4807F02BF68
:10027000013015F4C03F0130F0BC0138704700BFB9
:1002800038B50A4B054618684FF47A73B0FBF3F0A3
:1002900000F06EFB044638B9024629464FF0FF30A5
:1002A00000F026FB204638BD012038BD100100209B
:1002B00010B5032000F00AFB0020FFF7E1FF044621
:1002C00018B903F035FB204610BD0124FBE7000000
:1002D000024A136801331360704700BF18040020FE
:1002E000014B1868704700BF1804002038B5044659
:1002F00000286ED090F820300BB903F031FB226853
:10030000136823F002031360FFF7EAFF0546236832
:100310005A68910751D41A6842F001021A60FFF737
:10032000DFFF054623685A68D20754D5227E012A8A
:100330001A680CBF42F0800222F080021A60627ECE
:10034000012A1A680CBF42F0400222F040021A60F3
:10035000A27E012A1A680CBF42F0200222F020027D
:100360001A60E27E012A1A680CBF22F0100242F0E5
:1003700010021A60227F012A1A680CBF42F008029C
:1003800022F008021A60627F012A1A680CBF42F04C
:10039000040222F004021A60E168A2680A4321699B
:1003A0000A4361690A43616801390A43DA6100203E
:1003B0000123606284F8203038BDFFF791FF401BB5
:1003C0000A28A4D9636A43F400336362052384F8DE
:1003D0002030012038BDFFF783FF401B0A28A1D938
:1003E000F0E790F82030013B012B70B55FD803682F
:1003F0004869D3F8002242F00102C3F80022012428
:1004000000F01F02D3F81C5204FA02F2D443254034
:10041000C3F81C52CD6985BBD3F80C52CE68254079
:10042000C3F80C528D8803EBC00045EA0645C0F8BE
:1004300040528E680D8845EA0645C0F844528869E6
:1004400068BBD3F804022040C3F80402086950BB1B
:10045000D3F814022040C3F81402096A012902BF2C
:10046000D3F81C120A43C3F81C22D3F8002222F04E
:100470000102C3F80022002070BD012DDFD1D3F8A6
:100480000C520E681543C3F80C528D8803EBC00064
:1004900045EA0645C0F840528E688D89CBE7D3F80F
:1004A00004021043D0E7D3F814021043D3E7436AA1
:1004B00043F480234362012070BD38B590F82030AA
:1004C000012B04461FD10268022380F820301368F4
:1004D00023F001031360FFF703FF05462368586804
:1004E00010F0010001D1606238BDFFF7F9FE401B3A
:1004F0000A28F3D9636A43F400336362052384F85E
:100500002030012038BD436A43F400234362F8E7FA
:10051000F0B590F820500668013D012DB46840D830
:1005200014F0E05F39D0C4F30164032C4FF00105EF
:1005300005D1436A43F4000343620120F0BDA540A6
:100540001D608868CF6804F1180308BB086847EA93
:1005500040501B012401F05033190869097DC3F88C
:100560008401012902BFD3F8841141F48071C3F8DA
:10057000841134445168C4F88C111268C4F888217D
:10058000D3F8802142F00102C3F880210020F0BDA1
:100590004D68384340EAC500DBE7436A43F4001383
:1005A000CAE7436A43F48023C6E7F0B590F82040D9
:1005B000013C012C6BD8066841B9F468A40707D147
:1005C000436A43F4001343620120F0BD3469F5E748
:1005D0000C013519D5F8B07107F004079760002FAA
:1005E0004BD1D5F8B0717F0D1760D5F8B071C7F356
:1005F0004007D760D5F8B47107F00F071761D5F839
:10060000B471D5F8B4512644C7F307272D0C976170
:100610005561D6F8B8211A7002682244D2F8B82180
:10062000120A5A7002682244D2F8B821120C9A7049
:1006300002682244D2F8B821120EDA70026822440D
:10064000D2F8BC211A7102682244D2F8BC21120AE5
:100650005A7102682244D2F8BC21120C9A710268C5
:100660001444D4F8BC21120EDA71036851B9DA6867
:1006700042F02002DA600020F0BDD5F8B071FF082A
:100680005760B2E71A6942F020021A61F3E7436A41
:1006900043F4802397E790F82030013B012B05D8E5
:1006A000026853691943516100207047436A43F45B
:1006B000802343620120704770477047704770473E
:1006C0007047704770477047704770477047704772
:1006D0002DE9F84F03685E69D3F804909F68D3F85A
:1006E0000CB0D3F810A0D3F8188016F0010405461A
:1006F00022D017F0010407D00122B9079A6040F117
:10070000A380FFF7D9FF0024FB0509D52B684FF420
:100710008072B8059A6040F1A5802846FFF7CDFFAA
:10072000FB0309D52B684FF48032B8039A6040F17F
:10073000A7802846FFF7C2FF330707D51BF0100F2D
:100740001FBF2B68102244F40074DA60770708D5C5
:100750001BF0080F05D02B680822DA602846FFF747
:10076000B1FFB00706D52B68DB68990702D0284691
:1007700002F0BAFE720607D51AF0100F1FBF2B68E1
:10078000102244F480641A61B30608D51AF0080FE9
:1007900005D02B6808221A612846FFF795FFF70657
:1007A00006D52B681B69980702D02846FFF78BFFF8
:1007B000B10308D519F0100F05D02B6810225A602C
:1007C0002846FFF782FFF20308D519F0080F05D07D
:1007D0002B6808225A602846FFF778FF33042AD591
:1007E00019F0040F2A6824D0F70504D518F0010F7A
:1007F00018BF44F00104B00504D518F0020F18BF6B
:1008000044F00204710504D518F0040F18BF44F039
:10081000040433050DD518F070030AD0302B4CD0EA
:100820003CD8102B43D0202B44D0936923F0700385
:100830009361042353602CB16B6A1C436C6228469D
:10084000FFF745FFBDE8F88F7A0705D417F00804D5
:1008500005D1FFF734FF57E74FF4006454E74FF436
:10086000805451E7790502D544F4005458E73A051D
:1008700002D544F4804453E72846FFF721FF4FE7B1
:10088000790302D544F4004456E73A0302D544F410
:10089000803451E72846FFF714FF4DE7502B0FD067
:1008A000602B10D0402BC0D144F04004BDE744F091
:1008B0000804BAE744F01004B7E744F02004B4E7B2
:1008C00044F08004B1E744F48074AEE7074AD3688B
:1008D00023F4E0631B041B0C43F0BF63000243F4EA
:1008E000003300F4E0600343D360704700ED00E0A4
:1008F000174B30B5DC68C4F30224C4F10703251D8F
:10090000042B28BF0423062D4FF0010505FA03F33D
:1009100003F1FF338CBF033C00241940A14005FACA
:1009200004F4013C2240002842EA01024FEA02128C
:10093000AFBF00F1604000F00F00064BD2B2A5BF80
:1009400000F56140D2B21A5480F8002330BD00BFD8
:1009500000ED00E014ED00E04209012300F01F006B
:1009600003FA00F0014B43F82200704700E100E079
:100970000138B0F1807F0AD2064B074A5860F02157
:1009800082F823100020072298601A607047012027
:10099000704700BF10E000E000ED00E02DE9F74FE8
:1009A000D1F80080DFF874915A4A002338FA03F432
:1009B00002D103B0BDE8F08F012404FA03FA18EA6B
:1009C0000A0500F09C804C6824F0100BBBF1020F6C
:1009D00014D14FEAD30E00EB8E0E03F0070CDEF8B5
:1009E00020604FEA8C0C0F2707FA0CF726EA07075E
:1009F0000E6906FA0CF63E43CEF820604FEA430C2F
:100A00000327066807FA0CF7FF4304F0030E3E4085
:100A10000EFA0CFE0BF1FF3B4EEA0606BBF1010F8E
:100A2000066011D8866806EA070BCE6806FA0CFE47
:100A30004EEA0B068660466826EA0A0AC4F30016E8
:100A40009E4046EA0A064660C66837408E6806FA47
:100A50000CF63743E600C76051D5D9F8606046F020
:100A60000106C9F86060D9F8606023F0030707F158
:100A7000804706F0010607F58037019603F0030C66
:100A8000019EBE684FEA8C0C4FF00F0E0EFA0CFE62
:100A9000B0F1904F26EA0E0E33D01F4EB04232D046
:100AA00006F58066B04230D006F58066B0422ED0A2
:100AB00006F58066B04214BF0726042606FA0CF637
:100AC00046EA0E06BE601668EF4314F4803F0CBF82
:100AD0003E402E431660566814F4003F0CBF3E4063
:100AE0002E435660966814F4801F0CBF3E402E4380
:100AF0009660D668A40254BF3E402E43D6600133B0
:100B000054E70026DAE70126D8E70226D6E70326CF
:100B1000D4E700BF00040140000400480010024078
:100B20000AB181617047816270472DE9F041044646
:100B300086B000286BD090F8293403F0FF021BB96F
:100B400080F8282403F012F82546032355F8100BEB
:100B500084F8293401F0A7FA0FCD6E460FC62B6832
:100B6000336004F1040898E80E00206801F089FA67
:100B70000021206801F0A1FA00212246234604F159
:100B800010050126084683F82810D98601310F295F
:100B900083F8296083F82B009863D863186403F105
:100BA0002003F0D100231F4682F8283201330F2B97
:100BB00082F8297282F82B72C2F83872C2F83C723D
:100BC000C2F8407202F12002EED10FCD6E460FC680
:100BD0002B68336098E80E00206801F070FA01235A
:100BE00084F8247084F82934E369012B02D120466B
:100BF00000F0B0FB236A012B02D1204600F096FBE7
:100C0000206801F048FD002006B0BDE8F081012019
:100C1000FAE790F82834012B10B504460CD00123D4
:100C200080F82834006801F02BFD206801F030FACC
:100C3000002084F8280410BD022010BD90F828245C
:100C4000012A10B504460BD0012280F8282484F82C
:100C50002410006801F00EFD002084F8280410BD67
:100C6000022010BD70B5044601F00F0011F0800F96
:100C7000C5B24FF0200101FB054115BF04EB45153E
:100C800004EB4515283101F50A7115BF0126002630
:100C900085F8296085F829620A614A78CB70C0B26C
:100CA000087002B1C881022B04BF00230B7194F8B5
:100CB0002834012B09D0012384F82834206801F05E
:100CC0001BFA002084F8280470BD022070BD01F0DA
:100CD0000F0311F0800FDAB24FF0200101FB020187
:100CE00010B5044619BF00EB4212283101F50A7114
:100CF00004EB421215BF0120002082F8290082F87F
:100D000029020B7094F82834012B09D0012384F8B0
:100D10002834206801F066FB002084F8280410BD08
:100D2000022010BD70B501F00F0100EB41164C011F
:100D3000002586F8281204F50A710144C6F83C2201
:100D4000C6F84032C6F8445286F82952006801F0CD
:100D5000C3FC284670BD01F00F0100EB4111B1F852
:100D60004402704770B501F00F0100EB41154C01D2
:100D70002B640026012385F8281004F12801014482
:100D8000EA636E6485F82930006801F0A5FC3046FE
:100D900070BD00002DE9F84F0446006801F083FCA7
:100DA000000400F13082206801F07DFC41050FD580
:100DB0002268B2F8443023F480631B041B0C2046E5
:100DC000A2F8443002F009FF00212046FFF736FF69
:100DD000206801F068FC430408D52268B2F844306A
:100DE00023F480431B041B0CA2F84430206801F05C
:100DF0005AFC870408D52268B2F8443023F4005323
:100E00001B041B0CA2F84430206801F04CFCC60403
:100E100026D52268B2F8403023F004031B041B0CD3
:100E2000A2F84030B2F8403023F008031B041B0C3A
:100E3000A2F8403094F86034012B05D1002184F8E9
:100E40006014204602F0C8FF204602F0E3FE22684C
:100E5000B2F8443023F480531B041B0CA2F8443036
:100E6000206801F020FC05051DD52068B0F8403051
:100E70009BB243F00803A0F84030B0F8443023F4AC
:100E800000631B041B0CA0F84430B0F840309BB248
:100E900043F00403A0F8403001F005FCC00402D484
:100EA000204602F0A7FE206801F0FDFB010629D5CF
:100EB0002368B3F8442022F080021204120CA3F835
:100EC000442094F86024002A40F0A281B3F8402026
:100ED00092B242F00402A3F84020B3F8402092B24C
:100EE00042F00802A3F84020B3F85430C3F38D0356
:100EF000012103F03C0384F86014C4F864342046F4
:100F000002F06AFF206801F0CEFB82050BD5226853
:100F1000B2F8443023F400731B041B0CA2F84430D5
:100F2000204602F056FE206801F0BDFBC30508D53F
:100F30002268B2F8443023F480731B041B0CA2F81F
:100F40004430BDE8F88FB0F8441089B211F00F07B3
:100F500040F0A580038811F010019BB229D103EA6B
:100F60000A030380B0F8503094F8282000F20240C1
:100F700010FA83F030F83230E26BC3F30903636494
:100F80001344E363204602F01DFE94F8243053B16D
:100F9000226C42B994F82430216843F08003A1F810
:100FA0004C3084F824202068B0F844301A04CAD4A5
:100FB000F9E61A051ED5B0F8503094F8282200F250
:100FC000064111FA83F304F5866133F83230B4F840
:100FD0002E22C3F30903C4F8443201F065FC2268F1
:100FE000138823F070031B051B0D1380204602F0AD
:100FF000DBFDD8E71F04D6D5038823F070031B055B
:101000001B0D0380B0F8503094F8282200F20641FE
:1010100011FA83F333F83230C3F30903C4F84432CE
:1010200063B1B4F82E22D4F83C1201F03DFCD4F8A0
:101030003C32D4F844221344C4F83C320021204608
:1010400002F0B8FD2268D4F83832B2F8501002F23B
:10105000064589B253B96B5A23F440639B049B0C39
:101060006FEA43436FEA53436B5207E03D2B11D8BD
:101070005808DE0748BF01308002685213889BB2CF
:1010800003EA0B0383F4405343F4004343F080032B
:10109000138088E760485B0940EA8323E4E73EB2B7
:1010A00030F826901FFA89F919F4004F3ED030F835
:1010B000263023F070031B051B0D4FEA471820F85C
:1010C000263004EB080191F83432002B57D1B0F8E8
:1010D000503091F8282200F2064515FA83F333F8D0
:1010E0003250C5F3090535B1B1F82E22D1F83C12C2
:1010F0002B4601F0D9FB04EB461304EB0801D3F8AF
:1011000044222A44C3F84422D1F83C222A44C1F89C
:101110003C22D3F840321BB1D1F83802854269D263
:10112000A044204698F8281202F044FD19F0800FE0
:101130003FF439AF236833F8262092B202EA0A025C
:1011400023F8262004EB4717B3F8502097F828100F
:1011500003F2024313FA82F304EB461633F831200C
:10116000C2F309027264FB6B97F828101A44FA6301
:10117000336C2046002B43D102F024FD13E791F895
:10118000282213B230F8233013F4804FB0F85030D7
:1011900022D000F2024515FA83F333F83250C5F33A
:1011A000090535B1B1F830222B46D1F83C1201F0D7
:1011B0007BFB04EB0803226893F8281232F82130F5
:1011C0009BB223F4E04323F0700343F4004343F065
:1011D000C00322F821308EE700F2064515FA83F3AA
:1011E00033F83250C5F30905002DE2D02B46B1F893
:1011F0003222DAE791F828122046FFF793FD95E7AF
:10120000FFF7B0FDCFE6DFF814A0DFF814B0CAE6B0
:10121000204602F0EFFC75E60080FFFF0F8FFFFF16
:101220008FBFFFFF38B5436801F00F059D420446AC
:101230002DD811F0800F4FF020031ED000EB451287
:1012400003FB05030121283382F8291001229A703B
:101250001D7094F8281491421BD084F82824194654
:10126000206801F09FF925B904F58661206801F036
:101270001EFA002084F8280438BD03FB010300EBAC
:101280004111002203F50A7381F82922DEE70120CB
:1012900038BD022038BD38B5436801F00F029A42CC
:1012A000044627D811F0800F4FF0200101FB020106
:1012B0004FEA421319BF1B18283101F50A711B1997
:1012C00014BF012000204FF0000514BF83F829004F
:1012D00083F829028D700A7094F82834012B0BD002
:1012E000012384F82834206801F07DF984F828541B
:1012F000284638BD012038BD022038BD11F0800FCE
:101300001BBF01F00F0100EB411000EB4110283032
:1013100008BF00F50A701AB90273C3800020704735
:10132000012203811B0C02734381F7E7026801234A
:10133000C0F86C34B2F858309BB243F00103A2F805
:101340005830B2F858309BB243F00203A2F858303C
:1013500000207047026803460121C0F8681400208D
:1013600083F86004B2F854309BB20B43A2F85430B7
:10137000B2F854309BB243F00203A2F854307047E5
:10138000024A136843F48073136070470070004092
:10139000024B186800F4C060704700BF0070004046
:1013A000174B1A68B0F5007F02F4C0621CD1B2F589
:1013B000007F15D01A6822F4C06242F400721A60ED
:1013C000104A116832224A430F49B2FBF1F2194622
:1013D00001325869400500D522B94B695B050DD42F
:1013E00000207047013AF4E7B2F5806F1FBF1A681A
:1013F00022F4C06242F480621A60F1E70320704771
:10140000007000401001002040420F00024A536863
:1014100043F48063536070470070004037B51E4D41
:10142000AB6DDA00044618D5FFF7B2FFB0F5007FC8
:1014300023D1802C29D9A02C8CBF02200120174A4F
:10144000136823F0070303431360136803F00703D3
:10145000181A18BF012003B030BDAB6D43F08053A4
:10146000AB65AB6D03F080530193019BFFF790FFD9
:10147000AB6D23F08053AB65D8E7802C07D808D03C
:10148000A4F1700358425841D9E70020D7E7032060
:10149000D5E70220D3E700BF001002400020024041
:1014A000254B9A68D96812F00C0205D00C2A15D188
:1014B00001F00301012918D119682048090755BF17
:1014C000D3F894101968C1F30321C1F3031150F844
:1014D000210082B30C2A09D000207047042A29D0A9
:1014E000082A174818BF002070470020D968DA681A
:1014F00001F00301C2F30212022902F1010205D038
:10150000032912D0D968C1F3062103E0D9680D4838
:10151000C1F30621DB68B0FBF2F0C3F34163013392
:1015200048435B00B0FBF3F07047D9680448C1F34F
:101530000621EFE7034870470010024038480008D2
:1015400000127A000024F4002DE9F743054608B99B
:10155000012046E0A84C0368A668E768DB0606F0B1
:101560000C0607F0030772D51EB10C2E51D1012FC6
:101570004FD12368980702D5AB69002BE8D02368C8
:10158000286A190756BFD4F8943023681B0903F062
:10159000F003834228D2FFF741FF0028D8D1236807
:1015A00043F00803236023682A6A23F0F0031343FF
:1015B00023606368EA6923F47F4343EA022363609C
:1015C000FFF76EFFA3688D4AC3F30313D35C03F0E8
:1015D0001F03D8408A4B18600020FEF751FE0028F8
:1015E00035D003B0BDE8F083236843F008032360DF
:1015F000236823F0F003034323606368EA6923F45C
:101600007F4343EA02236360FFF708FF0028D7D037
:101610009EE7AB69002B3AD0236843F001032360B7
:10162000FEF75EFE804623689A0728D5236843F0BC
:101630000803236023682A6A23F0F003134323601E
:101640006368EA6923F47F4343EA022363602B68FB
:10165000D8072DD42B6899076BD42B68180700F195
:10166000A0802B68590700F1CD802B68990600F106
:101670003681AB6A002B40F05C810020B1E7FEF7B9
:101680002FFEA0EB08000228CDD90320A9E723688C
:1016900023F001032360FEF723FE804623689B07A7
:1016A000D5D5FEF71DFEA0EB08000228F6D9ECE721
:1016B000082E03D00C2E08D1032F06D123689A03DD
:1016C000C8D56B68002BC5D142E76B68B3F5803F86
:1016D00010D1236843F480332360FEF701FE804677
:1016E00023689B03B6D4FEF7FBFDA0EB080064283B
:1016F000F6D9CAE7B3F5A02F04D1236843F48023B9
:101700002360E6E7226822F480322260226822F415
:1017100080222260002BE0D1FEF7E2FD80462368A4
:10172000980397D5FEF7DCFDA0EB08006428F6D9F6
:10173000ABE7042E03D00C2E10D1022F0ED123685C
:10174000590503D5EB68002B3FF402AF63682A69A3
:1017500023F0F85343EA026363607EE7EB687BB1F2
:10176000236843F480732360FEF7BAFD07462368BD
:101770005A05EBD4FEF7B4FDC01B0228F7D984E765
:10178000236823F480732360FEF7AAFD07462368CD
:101790005B057FF562AFFEF7A3FDC01B0228F6D9FB
:1017A00073E76B699BB1D4F8943043F00103C4F83C
:1017B0009430FEF795FD0746D4F894309A073FF52C
:1017C00050AFFEF78DFDC01B0228F5D95DE7D4F8B8
:1017D000943023F00103C4F89430FEF781FD0746EE
:1017E000D4F894309B077FF53CAFFEF779FDC01B22
:1017F0000228F5D949E700BF001002402748000839
:1018000010010020A36DD80029D4A36D43F08053AC
:10181000A365A36D03F080530193019B4FF0010872
:10182000714F3B68D9051DD5AB68012B2BD1D4F87E
:10183000903043F00103C4F89030FEF751FD41F2BF
:1018400088390746D4F890309B0742D5B8F1000F8D
:101850003FF40BAFA36D23F08053A36505E74FF072
:101860000008DDE73B6843F480733B60FEF738FD1A
:1018700081463B68DA05D7D4FEF732FDA0EB0900BC
:101880000228F6D901E7052B06D1D4F8903043F0B1
:101890000403C4F89030CAE7D4F8902022F0010283
:1018A000C4F89020D4F8902022F00402C4F89020CC
:1018B000002BC2D1FEF714FD41F288390746D4F857
:1018C00090309807C2D5FEF70BFDC01B4845F6D9EE
:1018D000DBE6FEF705FDC01B4845B3D9D5E66B6ACC
:1018E0009BB1D4F8983043F00103C4F89830FEF768
:1018F000F7FC0746D4F898309A073FF5BAAEFEF7E2
:10190000EFFCC01B0228F5D9BFE6D4F8983023F0CD
:101910000103C4F89830FEF7E3FC0746D4F898308A
:101920009B077FF5A6AEFEF7DBFCC01B0228F5D9AE
:10193000ABE60C2E3FF40CAE022B236823F0807331
:10194000236036D1FEF7CCFC0646236898012AD4E2
:10195000AB6B6A6BDB0643EA0223EA6A13432A6B2A
:10196000013A43EA0213EA6B5208013A43EA42534E
:101970002A6C5208013A43EA4263E360236843F069
:1019800080732360E36843F08073E360FEF7A8FC94
:101990000546236899013FF570AEFEF7A1FC401B98
:1019A0000228F6D971E6FEF79BFC801B0228CCD9F1
:1019B0006BE623681A015EBFE36823F00303E3606C
:1019C000E36823F0887323F48033E360FEF788FC38
:1019D000054623689B017FF550AEFEF781FC401B56
:1019E0000228F6D951E600BF007000402DE9F04111
:1019F0000E46044610B90120BDE8F081404A136844
:101A000003F007038B4229D32368D90731D4216817
:101A10008A075BD43A4A136803F007039E425DD3FA
:101A200011F0040F374D64D10B0706D5AB6822695E
:101A300023F4605343EAC203AB60FFF731FDAB68A8
:101A4000314AC3F30313BDE8F041D35C03F01F0335
:101A5000D8402E4B18600020FEF712BC136823F00C
:101A600007030B431360136803F007039942C2D1C5
:101A7000CAE76268234D032A2B681BD113F0007F4D
:101A8000B9D0AB6823F003031343AB60FEF728FC27
:101A900041F288380746AB68626803F00C03B3EB89
:101AA000820FB4D0FEF71CFCC01B4045F3D90320C5
:101AB000BDE8F081022A02D113F4003FE0E712B939
:101AC00013F0020FDCE713F4806FD9E70D4AA0682A
:101AD000936823F0F003034393609BE7136823F0BC
:101AE000070333431360136803F007039E4282D158
:101AF00096E7AB68E26823F4E0631343AB6093E7D7
:101B00000020024000100240274800081001002079
:101B1000F8B5444BDA6812F0030F05460E461C4632
:101B2000006839D0DA6802F0030282424BD1002A01
:101B300049D0DB686A68C3F302130133934242D190
:101B4000236823F080632360FEF7CAFB07462368FF
:101B50001A0141D4AF68002E45D0012E4FD1226921
:101B6000286922F4C002400822F4FE42013842EA09
:101B7000072242EA40522261236843F080632360D7
:101B8000FEF7AEFB064623681B0145D52369AA690B
:101B9000134323610020F8BD022810D0032814D07D
:101BA000012810D11B689F07F5D5E3686A6823F008
:101BB0007303013A184340EA0210E060C0E71B6873
:101BC00013F4806FF1D10120F8BD1A689103ECD4B1
:101BD0001B6813F4802FF5E7FEF782FBC01B022879
:101BE000B5D90320F8BD2269E96822F07842C90618
:101BF00041EA072322F4FE4213432361BCE7236931
:101C0000686923F0C063400823F4FE43013843EAC7
:101C1000072343EA4063F0E7FEF762FB801B0228DC
:101C2000B1D9DEE7001002402DE9F743056815F44D
:101C3000006504460ED0416CB1F5000F53D0B1F5EC
:101C4000400F55D000295ED10430FFF761FF0546F3
:101C500000284DD023689E0363D5AD4EB36DD800E8
:101C600040F14A810027DFF8AC82D8F8003043F415
:101C70008073C8F80030FEF733FB8146D8F8003097
:101C8000D90542D5002D47D1D6F8903013F44073D2
:101C900014D0E26D934211D0D6F89030D6F890204F
:101CA00042F48032C6F89020D6F8902023F4407396
:101CB00022F48032C6F89020C6F89030DA0709D5B1
:101CC000FEF70EFB41F288398046D6F890309B072C
:101CD00040F1E980D6F89030E26D23F4407313436D
:101CE000C6F8903018E08A4AD36843F48033D36052
:101CF000874A616CD2F8883023F440030B43C2F862
:101D000088300025A6E70125A4E7FEF7E9FAA0EB55
:101D100009000228B2D903251FB1B36D23F0805307
:101D2000B3652368D80708D57949206AD1F8882097
:101D300022F003020243C1F88820990708D57449AC
:101D4000606AD1F8882022F00C020243C1F8882092
:101D50005A0708D56E49A06AD1F8882022F03002CF
:101D60000243C1F888209F0608D56949E06AD1F886
:101D7000882022F440620243C1F888209E0508D5DD
:101D80006349E06BD1F8882022F440220243C1F875
:101D90008820580508D55E49206CD1F8882022F4A7
:101DA00040120243C1F88820590608D55849206BD3
:101DB000D1F8882022F440520243C1F888201A0644
:101DC00008D55349606BD1F8882022F44042024381
:101DD000C1F88820DF0508D54D49A06BD1F88820CF
:101DE00022F440320243C1F888209E040FD5484AAD
:101DF000A16CD2F8883023F040630B43B1F1006F3F
:101E0000C2F8883057D1D36843F48013D360236875
:101E100018030FD53E4AE16CD2F8883023F04063B6
:101E20000B43B1F1006FC2F888304FD1D36843F44F
:101E30008013D360236859030FD5354A216DD2F83A
:101E4000883023F040630B43B1F1006FC2F8883053
:101E500047D1D36843F48013D36023685A0412D562
:101E60002B49626DD1F8883023F040531343B2F10F
:101E7000805FC1F8883006D10221201DFFF748FE9F
:101E8000002818BF054623681B0408D5204AA16D09
:101E9000D2F8883023F080430B43C2F888302846BC
:101EA00003B0BDE8F083FEF71BFAA0EB080048453D
:101EB0007FF60BAF2FE7B1F1806FA8D10121201D74
:101EC000FFF726FE002818BF0546A0E7B1F1806F96
:101ED000B0D10121201DFFF71BFE002818BF0546C9
:101EE000A8E7B1F1806FB8D10121201DFFF710FEE6
:101EF000002818BF0546B0E7B36D43F08053B365C3
:101F0000B36D03F080530193019B0127ABE600BF43
:101F10000010024000700040024A136843F00403BE
:101F20001360704700100240104B9A6B42F08072B1
:101F30009A639A6B22F080729A6390E80C001343C4
:101F400082681343C2681343026943EA0243084AA2
:101F500053601368416923F47C5343EA01231360FF
:101F6000136843F060031360704700BF0010024025
:101F700000600040026838B5D36823F0A003D36046
:101F80000446FEF7ADF905462368DB689B0601D5DC
:101F9000002038BDFEF7A4F9401BB0F57A7FF3D9D5
:101FA000032038BD38B50368DA685206044601D507
:101FB000002038BD4FF0FF32DA60FEF791F9054698
:101FC0002368DB685B06F3D4FEF78AF9401BB0F5A3
:101FD0007A7FF5D9032038BD38B50446D8B190F8DA
:101FE000213003F0FF021BB980F8202001F0F4FC3F
:101FF000022384F821302368CA225A6253225A628B
:102000002046FFF7CFFF2368054638B1FF225A620A
:10201000042384F821300125284638BD9A682069B8
:1020200022F4E00222F040029A606268996802435A
:10203000A06902430A439A60E2681A611A69A168BA
:1020400042EA01421A61DA6822F08002DA609B6893
:102050009B0605D42046FFF78DFF08B12368D5E71E
:1020600023686069DA6C22F00302DA64E269D96CF1
:1020700002430A43DA64FF225A62012384F82130C2
:10208000CAE784B001A880E80E0004B000207047C1
:10209000B0F840309BB243F43F4343F08003A0F8D4
:1020A000403000207047B0F8403023F47E535B048A
:1020B0005B0CA0F84030002070470020704784B0CF
:1020C00010B503AC84E80E0000220123A0F84030D4
:1020D000A0F84020A0F84420A0F85020B0F84030EC
:1020E000BDE810409BB243F43F4343F08003A0F8A7
:1020F000403004B010467047F0B50C7830F824201A
:1021000022F4EC42034622F07002C8781204120C4A
:10211000032850D8DFE800F0024C044942F4007272
:10212000002023F824200E78AB4C35B233F825205C
:1021300092B22240324342F4004242F0800223F83D
:1021400025200D7B0A78002D40F082804F78CE88C4
:10215000082597B3B3F8507015FB023212FA87F2D4
:1021600026F00106A2F800640D7833F82520560603
:1021700009D533F8252092B2144044F4004444F0C9
:10218000C00423F82540CA780978944C09B2012A82
:1021900033F8212092B202EA040201D082F0200238
:1021A00042F4004242F08002C5E042F4C062B7E768
:1021B00042F48062B4E70120B3E7B3F8504015FB66
:1021C000023212FA84F226F00106A2F804640A78B8
:1021D000B3F850600C6915FB0232B6B202F2064247
:1021E00054B9945B24F44064A404A40C6FEA4444FE
:1021F0006FEA5444945307E03D2C24D86508E40763
:1022000048BF0135AD0295530C7833F824205204B1
:102210000DD533F8242022F4E04222F0700212049B
:10222000120C42F4404242F0800223F82420097844
:1022300033F8212022F4804222F070021204120CA2
:1022400082F44052ACE7664D640945EA8424D1E744
:1022500012B233F82250ADB2254045F4014545F0A5
:10226000800523F822500E78B3F85050082212FB54
:10227000063616FA85F50E8926F00106A5F80064E3
:102280000E78B3F8505012FB063212FA85F24D89DF
:1022900025F00105A2F804540A784D7812B2002DF9
:1022A0004CD133F822506F0409D533F82250ADB227
:1022B0002C4044F4404444F0800423F822400C783D
:1022C00033F8242056060DD533F8242022F4E042BA
:1022D00022F070021204120C42F4004242F0C002DA
:1022E00023F824200C7833F8242022F4E04222F052
:1022F00070021204120C42F4004242F0C00223F8B1
:1023000024200D7833F8252022F4804222F0700238
:102310001204120C48F2800482F44052224323F843
:102320002520097833F8212022F4E04222F04002EF
:102330001204120C224323F82120F0BD33F822505E
:102340006D0409D533F82250ADB22C4044F440441A
:1023500044F0800423F822400C7833F824205206FD
:102360000DD533F8242022F4E04222F0700212044A
:10237000120C42F4004242F0C00223F824200C78F0
:10238000164D33F8242022F4E04222F070021204A9
:10239000120C42F4404242F0800223F824200C78D0
:1023A000CA7824B2012A33F8242092B202EA050244
:1023B00018BF82F0200242F4004242F0800223F86B
:1023C0002420097833F8212022F4804222F0700280
:1023D0001204120CE4E600BF8F8FFFFFBF8FFFFFD8
:1023E0000080FFFF10B50B780C7B4A781BB2002CE5
:1023F0003DD112B330F8232052060DD530F82320FA
:1024000022F4E04222F070021204120C42F4004264
:1024100042F0C00220F823200A7830F8223023F45A
:10242000E04323F040031B041B0C43F4004343F040
:10243000800320F82230002010BD30F823205404FF
:102440000DD530F8232022F4E04222F0700212046D
:10245000120C42F4404242F0800220F823200A7815
:1024600030F8223023F4804323F07003DBE7002AA6
:102470004ED130F8232052040DD530F8232022F419
:10248000E04222F070021204120C42F4404242F088
:10249000800220F823200A7830F822305C060DD51F
:1024A00030F8223023F4E04323F070031B041B0CAC
:1024B00043F4004343F0C00320F822300A7830F898
:1024C000223023F4E04323F070031B041B0C43F47D
:1024D000004343F0C00320F822300C7830F8243059
:1024E00023F4804323F070031B041B0C48F280028A
:1024F000134320F82430097830F8213023F4E043E6
:1025000023F040031B041B0C134320F8213092E7F7
:1025100030F8232052040DD530F8232022F4E04275
:1025200022F070021204120C42F4404242F0800287
:1025300020F823200A7830F822305B060DD530F8D9
:10254000223023F4E04323F070031B041B0C43F4FC
:10255000004343F0C00320F822300A7830F82230DC
:1025600023F4E04323F070031B041B0C43F44043AB
:1025700043F0800320F822300C7830F8243023F424
:10258000E04323F040031B041B0C48F2800213437A
:1025900020F82430097830F8213023F4804323F0E8
:1025A0007003AFE70A784B7812B28BB130F8223063
:1025B00023F4E04323F040031B041B0C83F01003BF
:1025C00043F4004343F0800320F82230002070479A
:1025D00030F8223023F4804323F070031B041B0CDB
:1025E00083F48053ECE70A784B7812B223B330F8C7
:1025F00022305B060DD530F8223023F4E04323F07F
:1026000070031B041B0C43F4004343F0C00320F889
:1026100022300A7830F8223023F4E04323F04003DC
:102620001B041B0C83F0300343F4004343F080038E
:1026300020F822300020704730F822305B040DD59E
:1026400030F8223023F4E04323F070031B041B0C0A
:1026500043F4404343F0800320F822300A7830F8F6
:10266000223023F4804323F070031B041B0C83F4FB
:102670004053D9E711B98023A0F84C3000207047AF
:10268000B0F858306FEA43436FEA53439BB2A0F867
:10269000583000207047B0F85830C3F30E03A0F84C
:1026A000583000207047B0F8440080B270470020D6
:1026B000704710B502F580620133104423F0010326
:1026C00002460344141A9A420C4400D110BD2488D7
:1026D00022F8024BF6E70000F8B5044648788A690C
:1026E0000B690F7B01280D466BD19A4297BF0023DF
:1026F000D21A8B61134688BF8A619EB20FBBCA880B
:10270000496933462046FFF7D4FFB4F850302A78A1
:1027100004F2024111FA83F323F832602A7834F884
:10272000223023F4E04323F040031B041B0C83F00E
:10273000300343F4004343F0800324F822300020A8
:10274000F8BD09780AB234F8222012F0400FB4F82C
:10275000502015BF04F2064004F2024010FA82F243
:1027600010FA82F215BF22F8313022F831306A892E
:102770002A89696933462046FFF79BFF6B782A78E0
:102780007BB912B234F8223023F4E04323F0700313
:102790001B041B0C43F4004343F0C00324F8223015
:1027A000BCE7012BBAD112B234F8223023F4E04353
:1027B00023F070031B041B0C43F4404343F08003DD
:1027C000ECE79A4295BF0023D21A8B618A6198BFC9
:1027D00013460978A7B9B4F8502004F2064010FA5D
:1027E00082F202EBC102002B37D1138823F440633D
:1027F0009B049B0C6FEA43436FEA5343138034E01E
:1028000090B9B4F8502004F2024010FA82F202EBC0
:10281000C102ABB9118821F440618904890C6FEAC7
:1028200041416FEA514111806A78287872BBB4F84F
:10283000502004F2064111FA82F202EBC002D2E704
:102840003D2B05D85908D80748BF01318902EAE76E
:102850001448590940EA8121E5E73D2B11D8590870
:10286000DB0748BF0131890211802A7834F8223011
:1028700023F4804323F070031B041B0C83F44053A8
:1028800057E75909074B43EA8123B7E7012A01BFFC
:10289000B4F8501004F2064212FA81F121F83030F7
:1028A000E3E700BF0080FFFF02F58062F0B510444F
:1028B0005D080A4607462E46023236B9DB0744BF9A
:1028C00030F8153001F81530F0BD37F8024B02F83A
:1028D000024C240A02F8014C013EEDE7D0F8943294
:1028E00010B5D0F890425BB194F80002FF2807D0F1
:1028F0009B6894F8012221469847FF2384F8003210
:10290000002010BD4323038000487047380000209A
:1029100043230380004870477C000020432303804A
:1029200000487047CC0000200A230380004870470D
:10293000C000002038B50546D0F8904201F046FAB4
:10294000D5F89032C4F80C024BB1D5F89432D4F8D3
:102950000402DB6804F503719847002038BD0220AB
:1029600038BDF8B5D0F89062CEB1142303FB010353
:10297000DA6982B1D0F8984204EB4114A56BB2FB3E
:10298000F5F405FB142434B9DC612246234601F03A
:1029900001FA2046F8BD0020C6F81402F8BD022056
:1029A000F8BD2DE9F7430A78D0F890724FF000088F
:1029B00012F0600405460E468DF80580ADF80680DD
:1029C00028D0202C47D1CC884B78E4B1120611D501
:1029D000D0F894223946D2F8089018462246C847C3
:1029E000F2883946284600F03FFC4446204603B0B2
:1029F000BDE8F08387F8003287F801422246394665
:102A000000F047FCF1E7D0F894221846956822467A
:102A1000A847EBE74F780A2F0DD00B2F15D0D7B969
:102A200090F87432032B14D102220DF1060100F04C
:102A30001BFC3C46DAE790F87432032B09D10122E3
:102A40000DF1050100F010FCD0E790F87432032B73
:102A5000CCD03146284600F0E0FB0224C6E738B56A
:102A600004460025812101F04DF90121E56220464F
:102A700001F048F9C4F858518221204601F042F98A
:102A8000D4F8903225644BB1D4F894325B689847FF
:102A9000D4F8900201F0C8F9C4F89052002038BD73
:102AA000037C2DE9F0410446CBBB4FF400730222B6
:102AB0008121012501F016F9E5624FF400732946E2
:102AC0000222204601F00EF9C4F8585108230322CF
:102AD00082212046012501F005F925644FF4077095
:102AE00001F09EF90646C4F8900258B3D4F8943227
:102AF0001B68984794F810800027C6F81472C6F82F
:102B00001872B8F1000F13D14FF40073D6F80422F5
:102B10002946204601F04CF94046BDE8F0814023AB
:102B200002228121012501F0DDF8E5624023C6E79C
:102B30004023D6F804222946204601F039F93846C8
:102B4000BDE8F0812846BDE8F08119B1C0F89412C3
:102B50000020704702207047D0F890320020C3F860
:102B60000812C3F810227047D0F890320020C3F842
:102B700004127047D0F8902210B582B1D2F81442F6
:102B8000012374B9C2F81432D2F810320363D2F8B8
:102B900008229BB2812101F0FDF8204610BD0220E1
:102BA00010BD184610BDD0F8902210B562B1047C5B
:102BB00044B94FF40073D2F80422012101F0F8F86F
:102BC000002010BD4023F6E7022010BD08B580B1FB
:102BD000D0F88C3213B10023C0F88C3209B1C0F8A0
:102BE0008812012380F87432027001F027F8002067
:102BF00008BD022008BD19B1C0F88C120020704732
:102C00000220704708B501F05FF8002008BD08B544
:102C1000D0F88C320BB9022008BD1B6898470028F9
:102C2000F9D108BD08B5D0F88C325B689847002010
:102C300008BD38B5044600F52075284600F0D9FADD
:102C4000012394F88012C4F86C32B4F88632C4F8C8
:102C5000703201F01F03012B0ED007D3022B10D0CE
:102C600001F08001204601F05BF803E02946204690
:102C700000F0F0F8002038BD2946204600F00CFA9C
:102C8000F8E72946204600F02CFAF3E770B5054630
:102C9000164639BBD0F86C32032B1ED1D0F84C311C
:102CA000D0F8502193420BD99B1A9A42C0F84C316C
:102CB0008CBF9AB292B2314600F0FAFA002070BD91
:102CC000D0F88C321B6923B190F87422032A00D10A
:102CD0009847284600F0F4FAF0E7052BEED101F012
:102CE0001FF8EBE7D0F88C329B692BB190F8742277
:102CF000032A01D19847E1E7022070BD70B5134661
:102D000004460E46002948D1D0F86C22022A3DD153
:102D1000056A426A954214D9AA1A0262194692B209
:102D200000F0AFFA33461A461946204601F040F843
:102D300094F87832012B4FF000003AD184F87802F1
:102D400070BDC369B3FBF2F502FB153565B99A4254
:102D50000AD8D0F87022934206D22A4600F091FA9F
:102D6000C4F870522B46DEE7D4F88C32DB682BB106
:102D700094F87422032A01D12046984780212046E6
:102D800000F0CEFF204600F0A6FAD1E732F00403AF
:102D9000CED1802100F0C4FFCAE7D0F88C325B6945
:102DA00033B190F87422032A02D19847002070BDF5
:102DB000022070BD70B50022044611460125402650
:102DC000402300F08FFF33468021C4F84451C4F8FB
:102DD00050610022204600F085FFD4F89032A561B2
:102DE0000021666284F87452C4F86C126160C4F801
:102DF0007C1223B1D4F88C3220465B6898470020BF
:102E000070BD01740020704790F8743280F87532FC
:102E1000042380F874320020704790F8753280F8EF
:102E200074320020704708B590F87422032A04D148
:102E3000D0F88C32DB6903B19847002008BD10B58B
:102E40008021044600F06CFF20460021BDE81040C0
:102E500000F066BF37B50B7803F06003202B044603
:102E60000D4614D0402B12D0002B40F095804B78AB
:102E7000092B00F29080DFE813F0E70001018E00DB
:102E8000FA008E00820013008E00D200A000D4F859
:102E90008C3229469B6820469847002003B030BDFD
:102EA0004B881A0A013A0E2A75D8DFE802F0242866
:102EB000357474555E747474747474740800D0F846
:102EC0008832DB69207C0DF106019847BDF80620A9
:102ED00052B1EB8843B19A4228BF1A4601462046B8
:102EE000ADF8062000F0C0F9EB88002BD5D12046C4
:102EF00000F0E6F9D1E7D0F888321B68E2E7027CFF
:102F0000D0F88C3232B99B6A0DF106009847022343
:102F10004370DBE7DB6AF7E7DBB2052B3BD8DFE882
:102F200003F003070B0F1317D0F888325B68C9E76B
:102F3000D0F888329B68C5E7D0F88832DB68C1E7F3
:102F4000D0F888321B69BDE7D0F888325B69B9E7F1
:102F5000D0F888329B69B5E7037CE3B9D0F88C32AE
:102F60000DF106005B6B9847B0E7037C9BB9D0F886
:102F70008C320DF106001B6B98470723C8E78B883E
:102F80004BB9CB883BB94D887F2D04D890F874326B
:102F9000032BE9B203D12046FFF751FF7DE780F80C
:102FA000761200F0E9FE204600F08AF91DB10223F6
:102FB00084F8743271E70123FAE78978354D0129E5
:102FC0002970E8D890F87432022B08D0032B14D063
:102FD000FFF735FF29782046FFF724FE5DE700293B
:102FE00085D001210323416080F874322046FFF729
:102FF0000EFE02287FF47BAFCDE731B9022380F8C3
:1030000074324160FFF70EFE71E7416801293FF419
:103010006EAFC9B2FFF706FE29786160E6E7CA889D
:10302000012AB8D190F87432002BB4D0022B03D906
:10303000032BB0D1011D03E00146002341F8083FF6
:10304000204600F011F928E790F87432013B022B7A
:10305000A1D8CB88022B9ED10123C360D0F87C324B
:103060000BB10323C360022204F10C01E8E74B8893
:10307000012B7FF412AFC4F87C3238E790F8743239
:10308000013B022B87D84B88012B7FF406AF00232E
:10309000F1E700BFE801002038B50B7803F06003CA
:1030A000202B04460D4602D0402B00D0B3B994F833
:1030B0007432013B022B10D82B79012B0DD8D4F898
:1030C0008C3229469B6820469847EB881BB910B97B
:1030D000204600F0F5F8002038BD2046FFF7AFFE8F
:1030E000F9E738B50A7802F06002202A04460B4658
:1030F00013D0402A11D06AB95D788A88012DD1B2E7
:103100001FD035D3032D05D190F87422022A26D082
:10311000032A0AD0FFF793FE05E0D4F88C22194663
:10312000926820469047002038BD5A882AB94A063E
:1031300003D0DB880BB900F0F3FD204600F0C0F8A7
:10314000F1E790F87422022A09D0032AE2D15B88C1
:10315000002BE8D14D06F0D000F0F0FDEDE74B0676
:1031600017D000F0DDFD8021204600F0D9FDDAE720
:1031700090F87432022B0ED0032BCBD112F0800FBB
:103180004FF0140301F00F0203FB020212D0926908
:10319000DAB92046BEE74906FBD113064CBF00F161
:1031A000140100F5A07100230B600222204600F0FC
:1031B0005BF8B8E7D2F84421002AEAD001F07F0595
:1031C00003FB050505F5A07504E001F07F0505FB8F
:1031D0000335054411F07F0303D12B6002222946F9
:1031E000E4E7204600F0B8FD08B10123F5E72860C8
:1031F000F4E70B7803704B784370CA788B7803EB55
:10320000022343804A790B7903EB02238380CA7936
:103210008B7903EB0223C380704710B580210446ED
:1032200000F07EFD20460021BDE8104000F078BD92
:1032300030B588B105462B1A15F8014BDBB2002CCE
:10324000F9D101335B0013800B7003234B700138FD
:10325000022310F8015F05B930BD5A1CD2B2CD541B
:103260000233DBB28C54F4E710B513460222C0F8E7
:103270006C22C3610A460362002100F08BFD00202E
:1032800010BD08B513460A46002100F083FD00205A
:1032900008BD10B513460322C0F86C22C0F84831AF
:1032A0000A46C0F84C31002100F082FD002010BD1C
:1032B00008B513460A46002100F07AFD002008BD3B
:1032C00008B50423C0F86C3200231A46194600F0F2
:1032D00061FD002008BD08B50523C0F86C3200234D
:1032E0001A46194600F064FD002008BD90F88032AF
:1032F00090F881022033181A434203F01F0300F0B4
:103300001F0058BF5842C0B2704708B5FFF7EEFF24
:10331000B0FA80F0400908BD08B5FFF7E7FFA0F15B
:103320001F035842584108BD08B50246FFF7EDFF9C
:1033300058B992F88102431C03F01F0300EB800090
:1033400082F8813202EB800008BD002008BD08B57C
:103350000246FFF7DAFF30B992F8810200EB8000F5
:1033600002EB800008BD002008BDF8B50446FFF759
:10337000D3FF10BB94F880328D6803EB830080008C
:103380002618042D75600CBF4D680D680E69255018
:10339000142101FB034100258E60E8B2864205F14D
:1033A000010506D8013303F01F0384F880320120A1
:1033B000F8BD175C08440773EFE70020F8BDA0F1E3
:1033C0003003DAB2092A01D818467047A0F1610328
:1033D000052B01D857387047A0F14103052B94BF46
:1033E00037380020704700002DE9F043B7B01424AF
:1033F000442200210DA800F0D8FD602722460021BC
:1034000002A800F0D2FD374E3A464FF018090021CD
:103410001EA800F0CAFD4A46002107A800F0C5FD1D
:10342000FDF7AEFFD6F8903023F01803C6F89030C1
:1034300001250D9415970024022728234FF0070833
:103440000DA81A930F95139514941797189519951D
:10345000CDF86C801C971D97FEF776F80F2304219A
:10346000029302A803230393049405940694FEF7A1
:10347000BDFA4FF408331E934FF4807335934FF029
:10348000806330931EA84FF4801325931F952095D9
:10349000CDF88490CDF8888023972497FEF7C4FB5D
:1034A0004FF40070FDF77CFFFEF736FDB36D43F07F
:1034B0008073B365B36D079403F080730193019B30
:1034C00009944FF08053089340F2B7530A93222394
:1034D0000B9307A820230C93FEF726FD37B0BDE819
:1034E000F08300BF0010024038B5074D074C2B4653
:1034F00022460021FDF759F82A4621460448BDE836
:103500003840FFF732BF00BF1907002064070020D2
:1035100044040020144A117830B501F0FF04F1B9D9
:10352000124B19784D1E1D2D9DBF4C1C1C70104C4C
:103530001C7098BF6054542804D008D80D280AD0B5
:10354000512803D10A4A107001221A7030BD562842
:10355000F8D07428F5E7012111700022F5E70D2855
:10356000F4D10122034BF0E7EB010020E901002038
:10357000C8060020EA0100202DE9F84F0378394EF3
:10358000742B04462AD10023B3604078FFF717FF5D
:103590000546A078FFF713FF000140EA0525E07813
:1035A000FFF70DFF284330602079FFF708FF4FF049
:1035B00005093061DFF8B4A00027336909EB47053E
:1035C000BB42EDB240D8284B284A26492848FCF790
:1035D0009FFFB0FA80F04009BDE8F88F0423B36084
:1035E0004078FFF7ECFE0546A078FFF7E8FE0006FE
:1035F00040EA0575E078FFF7E2FE83462079FFF7A1
:10360000DEFE82466079FFF7DAFE8146A079FFF799
:10361000D6FE8046E079FFF7D2FE0746207AFFF714
:10362000CEFE284340EA0B5040EA0A4040EA093007
:1036300040EA082040EA07107060607AFFF7BFFE9A
:103640004FF00A093061B5E7605DFFF7B8FE254429
:1036500080466878FFF7B3FE40EA081007F80A00D2
:103660000137AAE74C070020140700200C070020B0
:103670002407002008B50378542B08D003D8512B19
:1036800018D10D4908E0562B05D0742B12D1FFF745
:1036900073FF0128F4E70949094800F0B3FC084822
:1036A000FCF796FD81B2064800F04AFA054B00226D
:1036B0001A7008BD0449EFE71C4800081F480008BD
:1036C00080070020EB010020244800082DE9F0418C
:1036D0001C4888B0FFF73BFE43680268042B044691
:1036E000836820D11849684600F068FC0A26DFF894
:1036F000648004F10C070025A36806EB4500AB428B
:10370000C0B216D81149684400F07CFC6846FCF74A
:103710005FFD81B2684600F013FA0A48FFF704FE25
:1037200008B0BDE8F0810A49684600F047FC05266C
:10373000DDE717F8012B4146684400F03FFC0135F6
:10374000DAE700BF440400200848000825480008C4
:10375000104800081748000880B58AB0FCF7A8FD9B
:10376000FFF742FE142200210DEB020000F01DFCC9
:10377000604B6148DA6C614D42F00402DA64DA6C45
:1037800002F004020192019ADA6C42F08002DA64DB
:10379000DA6C02F080020292029ADA6C42F00102C4
:1037A000DA64DA6C02F001020392039ADA6C42F0F6
:1037B0000202DA64DB6C03F00203049301220321AA
:1037C000049BFDF7ADF9012202214FF09040002447
:1037D000FDF7A6F94FF4005305A9494805930126C2
:1037E00006940794FDF7DAF8032305A942480593E8
:1037F0000227069607940894FDF7D0F805A94FF024
:1038000090400597069607940894FDF7C7F83D4A3F
:10381000AC604FF4C87385E80C004FF450232B6163
:1038200028464FF48003EC606B612C766C76AC76A6
:10383000EC762C776C77FCF759FD3348334B0461F9
:1038400080E818007F238360FF23C36044618461A4
:10385000C461FEF7C1FB00F023F92D4928464C61F5
:103860008C61CE610C604C608C60CC600C610E622F
:10387000FCF7B7FD2846FCF720FE39462846FCF742
:103880000AFF244F1C4C244EDFF89C803846FFF77B
:103890003CFD024650B901212046FDF741F9FFF7F2
:1038A00015FF012211462046FDF73AF998F800501D
:1038B000EDB2012D0CD1002202212046FDF730F996
:1038C0001648FFF7D7FE2A4602212046FDF728F9C1
:1038D000134D2B78012BD9D11249304600F092FBC1
:1038E0003046FCF775FC81B2304600F029F9002320
:1038F0002B70C9E700100240001C0048240700207C
:103900000008004800640040E8060020002800404D
:103910001C0400204404002080070020C80600206A
:10392000EA01002024480008EB0100207047000055
:103930000A4B1A6E42F001021A661A6E82B002F049
:1039400001020092009A9A6D42F080529A659B6D36
:1039500003F080530193019B02B0704700100240B6
:1039600010B5044688B01422002103A800F01DFB06
:103970002268174B9A4228D103F5D63303A99A6DD2
:10398000144842F000729A659A6D02F0007201923A
:10399000019ADA6C42F00202DA64DB6C03F0020393
:1039A0000293029B4FF44073039302230493032377
:1039B000069309230793FCF7F1FF00221420114618
:1039C000FCF796FF1420FCF7C7FF08B010BD00BF3E
:1039D00000640040000400480268054B9A4201BFA1
:1039E000044AD2F8903043F40043C2F89030704754
:1039F00000280040001002407047FEE7FEE7FEE7A7
:103A0000FEE7704770477047FCF762BC0148FCF75F
:103A10005FBE00BF240700200148FDF7BBB900BF0F
:103A20000C12002008B50A4B1968024609B9094969
:103A300019601868694602448A4206D900F080FA83
:103A40000C2303604FF0FF3008BD1A6008BD00BFB3
:103A5000EC010020841800200F49D1F8883043F48D
:103A60007003C1F888300D4B1A68002042F0010243
:103A70001A6098601A6822F0A85222F410221A6084
:103A80004FF48052DA601A6822F480221A6098613A
:103A90004FF000638B60704700ED00E000100240C3
:103AA00008B500220A490B48FFF790F80A4909486F
:103AB000FFF7A1F809490748FFF747F8054800F064
:103AC000B4F920B10348BDE80840FFF79BB808BD32
:103AD00024010020A0070020000000201401002085
:103AE000002070470020704770B504460E4605461A
:103AF00032682B1B9A4208D121460648FFF734F85A
:103B00000448FFF750F8002070BD15F8010BFFF7CF
:103B100001FDEDE7A007002010B5064C0649002284
:103B20002046FFF719F805492046FFF71DF8002049
:103B300010BD00BFA0070020240E00203C0A00207A
:103B400010B5094CD4F89032D3F814320A4643B970
:103B500001462046FFF700F82046BDE81040FFF779
:103B600009B8012010BD00BFA007002007B50D4B0C
:103B700002689A4212D103F5D43343209A6D42F081
:103B800080629A659B6D002203F080630193114669
:103B9000019BFCF7ADFE4320FCF7DEFE03B05DF8B1
:103BA00004FB00BF0068004000F58661D0F8700497
:103BB000FFF73FB800EB4113D0F87004D3F83C2274
:103BC000FFF764B800EB4113D0F87004DA6BFFF72D
:103BD00095B8D0F87004FFF726B910B50446012156
:103BE000D0F87004FFF70DF9D4F87004BDE8104068
:103BF000FFF7E0B810B50446D0F87004FFF704F9F9
:103C0000A36923B1024A136943F00603136110BD8F
:103C100000ED00E0836910B5044633B1064A13692C
:103C200023F006031361FFF7DFFBD4F87004BDE84F
:103C30001040FFF7F2B800BF00ED00E010B50446F9
:103C4000FDF7E4FB1E481F4AC0F87044082380E8D3
:103C50000C00C4F89802002302228260C360026153
:103C600043618361C3610362FCF75FFF08B1FFF743
:103C70005DFE002211461823D4F89802FDF73EFBA2
:103C8000582300228021D4F89802FDF737FBC02387
:103C900000228121D4F89802FDF730FB4FF488739D
:103CA00000220121D4F89802FDF728FB4FF480731D
:103CB00000228221D4F89802FDF720FB002010BDDD
:103CC0000C1200200068004008B5D0F89802FCF7FC
:103CD000A0FF03289ABF024B185C022008BD00BF5A
:103CE0006848000810B51C46D0F8980213462246D2
:103CF000FCF7B8FF03289ABF014B185C022010BDE7
:103D00006848000808B5D0F89802FCF7E0FF0328DF
:103D10009ABF024B185C022008BD00BF684800082B
:103D200008B5D0F89802FDF77DFA03289ABF024B38
:103D3000185C022008BD00BF6848000808B5D0F82C
:103D40009802FDF7A8FA03289ABF024B185C0220DC
:103D500008BD00BF684800080A06D0F8983245BF81
:103D600001F07F0103EB411303EB411393F82A00A9
:103D700058BF93F82A02704708B5D0F89802FCF7AC
:103D80005DFF03289ABF024B185C022008BD00BFEC
:103D90006848000808B5D0F89802FCF7E3FF03284C
:103DA0009ABF024B185C022008BD00BF684800089B
:103DB00008B5D0F89802FCF7B5FF03289ABF024B6C
:103DC000185C022008BD00BF6848000808B5D0F89C
:103DD0009802FCF7C0FF08BD10B5044611B10129D7
:103DE0000FD010BD836933B1FFF7FEFA0B4A136998
:103DF00023F006031361D4F87004BDE81040FFF708
:103E00000CB8D0F87004FEF7FFFFA36923B1034A92
:103E1000136943F00603136110BD00BF00ED00E01D
:103E200000487047F00100207047D0F898321B6AB4
:103E3000012B14BF022000207047000012230B80CA
:103E4000004870475001002004230B800048704751
:103E5000640100200C230B800048704744010020BF
:103E600010B5044C04480A462146FFF7E1F9204604
:103E700010BD00BF801600208548000810B5044C16
:103E800004480A462146FFF7D3F9204610BD00BF7B
:103E9000801600209848000810B5044C04480A46D3
:103EA0002146FFF7C5F9204610BD00BF801600204F
:103EB000AE48000810B5044C04480A462146FFF7F6
:103EC000B7F9204610BD00BF801600206C480008DE
:103ED00010B5044C04480A462146FFF7A9F92046CC
:103EE00010BD00BF8016002077480008DFF834D0EE
:103EF000002103E00C4B5B58435004310B480C4B42
:103F000042189A42F6D30B4A02E0002342F8043BDF
:103F1000094B9A42F9D3FFF79FFD00F017F8FFF71E
:103F20001BFCFEE700000120F8480008000000200C
:103F3000CC010020CC01002084180020FEE7000006
:103F4000014B1868704700BF6801002070B50D4E26
:103F50000D4CA41BA4100025A54209D10B4E0C4CFE
:103F600000F046FCA41BA4100025A54205D170BD9D
:103F700056F8253098470135EEE756F82530984732
:103F80000135F2E7F0480008F0480008F048000862
:103F9000F448000810B5431E0A44914200D110BDF8
:103FA00011F8014B03F8014FF7E70244034693422F
:103FB00000D1704703F8011BF9E700000EB400B50B
:103FC0009CB04FF402711DABADF814100290069036
:103FD0006FF000410A48049107914FF6FF7153F8C2
:103FE000042BADF816100068019302A900F06EF8DA
:103FF000029B00221A701CB05DF804EB03B07047FE
:1040000068010020034611F8012B03F8012B002A58
:10401000F9D170472DE9F0478E689E4282460C46E2
:104020009146984635D88A8912F4906F31D0256828
:1040300009696F1A6569022305EB450595FBF3F5E0
:1040400008F101033B449D4238BF1D46530531D55D
:10405000294600F02DFB064650B90C23CAF8003063
:10406000A38943F04003A3814FF0FF30BDE8F08700
:104070003A462169FFF78EFFA38923F4906343F04A
:104080008003A381266165613E44ED1B2660A56027
:104090004646464528BF464632464946206800F017
:1040A0009FFAA3689B1BA36023681E442660002020
:1040B000BDE8F0872A4600F059FB06460028E1D10A
:1040C0002169504600F0A6FAC7E700002DE9F04F3D
:1040D0009DB0804603938B891C060D4616460FD56E
:1040E0000B696BB9402100F0E3FA2860286128B918
:1040F0000C23C8F800304FF0FF30C5E040236B615F
:104100000023099320238DF8293030238DF82A309D
:104110004FF0010B37463C4614F8013B002B3CD1D5
:10412000B7EB060A0BD05346324629464046FFF706
:1041300071FF013000F0A380099B534409933B7841
:10414000002B00F09C8000234FF0FF320493079374
:10415000059206938DF853301A9305222178504822
:10416000FCF73EF8671C049BD8B9D90644BF20224F
:104170008DF853201A0744BF2B228DF85320227844
:104180002A2A16D0079A00210A20274601343B78B4
:10419000303B092B51D9C9B111E0252BC0D027469E
:1041A000B9E73F4A801A0BFA00F0184304903C46E6
:1041B000D3E7039A111D12680391002A01DB0792CD
:1041C00004E0524243F00203079204933B782E2B03
:1041D0000ED17B782A2B07F1010132D1039B1A1DE6
:1041E0001B680392002BB8BF4FF0FF3302370593D3
:1041F0002C4C397803222046FBF7F2FF38B14023DC
:10420000001B03FA00F0049B034304930137397841
:1042100025488DF8281006227E1CFBF7E1FF0028B8
:1042200035D0224BFBB9039B073323F00703083338
:104230000393099B4B4409936CE700FB0232012175
:10424000A3E70023059318460A240F4601313A7864
:10425000303A092A03D9002BCAD00590C8E704FBDD
:1042600000200123F1E703AB00932A46104B04A979
:104270004046AFF30080B0F1FF3F8146D9D1AB8912
:104280005B063FF538AF09981DB0BDE8F08F03AB72
:1042900000932A46064B04A9404600F081F8EAE75D
:1042A000BB480008C1480008C548000800000000DD
:1042B000154000082DE9F04791461F468A680B69B2
:1042C000DDF820809342B8BF1346C9F8003091F85A
:1042D000432006460C4612B10133C9F8003023686A
:1042E000990642BFD9F800300233C9F8003025687A
:1042F00015F0060507D104F1190AE368D9F8002082
:104300009B1A9D4229DB94F843302268003318BF82
:10431000012392062ED404F1430239463046C047A9
:10432000013021D02368E568D9F8002003F00603A6
:10433000042B08BFAD1AA36822690CBF25EAE575F6
:1043400000259342C4BF9B1AED184FF000091A34A0
:104350004D451BD10020BDE8F08701235246394668
:104360003046C047013003D14FF0FF30BDE8F08741
:104370000135C2E7E1185A1C302081F8430022447D
:1043800094F8451082F843100233C4E70123224613
:1043900039463046C0470130E6D009F10109D7E778
:1043A0002DE9F04317460A7E85B06E2A98460646E8
:1043B0000C460C9B01F1430E00F0BC801AD8632A16
:1043C0002ED00AD8002A00F0C880582A00F08A802F
:1043D00004F1420584F842202AE0642A01D0692AC7
:1043E000F6D121681A6811F0800F23D0111D1960D1
:1043F000136827E0732A00F0B48008D86F2A2AD007
:10440000702AE5D10A6842F020020A6003E0752AAA
:1044100021D0782ADCD1782284F845206E4964E0E6
:104420001A6801F14205111D1960136884F84230C1
:104430000123A3E011F0400F02F104011960D7D06D
:10444000B2F90030002B03DA2D225B4284F84320BE
:1044500062490A2217E02068196810F0800F03D023
:10446000081D18600B6806E010F0400F01F1040011
:104470001860F7D00B8859496F2A14BF0A22082206
:10448000002084F843006568A560002DC0F29C8080
:10449000206820F004002060002B3FD1002D40F068
:1044A00095807546082A0BD12368DA0708D5236959
:1044B00062689A42DEBF302305F8013C05F1FF3502
:1044C000AEEB05032361CDF800803B4603AA2146ED
:1044D0003046FFF7EFFE013055D14FF0FF3005B009
:1044E000BDE8F08381F845203C492268186812F045
:1044F000800F00F104051D6001D0036802E055063D
:10450000FBD50388D00744BF42F0200222601BB9CC
:10451000226822F0200222601022B1E77546B3FB28
:10452000F2F002FB1033CB5C05F8013D0346002896
:10453000F5D1B7E708681A68496910F0800F04D010
:10454000101D18601368196007E010F0400F02F1A9
:10455000040018601368F6D01980002323617546A3
:10456000B1E71A68111D19601568626800212846B4
:10457000FBF736FE08B1401B6060636823610023CF
:1045800084F843309FE723692A4639463046C047BE
:104590000130A2D023689B0707D5002504F1190933
:1045A000E368039A9B1A9D4205DBE068039B9842EF
:1045B000B8BF184693E701234A4639463046C047FC
:1045C00001308AD00135EBE7002BA7D10B7884F8B6
:1045D000423004F1420565E7DD480008CC48000898
:1045E000884210B501EB020303D8421E99420CD158
:1045F00010BD9842F9D28118D21AD34200D110BD11
:1046000013F8014D01F8014DF7E711F8014B02F8DD
:10461000014FEBE738B50546002945D051F8043C79
:104620000C1F002BB8BFE41800F0D6F81F4A13681F
:10463000104633B9636014602846BDE8384000F086
:10464000CCB8A3420CD921686218934204BF1A68FF
:104650005B68636004BF521822600460ECE7134695
:104660005A680AB1A242FAD919685818A0420BD167
:1046700020680144581882421960DDD110685268E0
:104680005A6001441960D7E702D90C232B60D3E7A5
:10469000206821188A4204BF11685268626004BF12
:1046A000091821605C60C7E738BD00BF1004002016
:1046B00070B5CD1C25F0030508350C2D38BF0C2531
:1046C000002D064601DBA94203D90C2333600020EC
:1046D00070BD00F081F8234A1468214691B9224C3C
:1046E00023681BB9304600F067F820602946304641
:1046F00000F062F8431C26D10C233360304600F0F2
:104700006CF8E4E70B685B1B1AD40B2B0FD90B601A
:10471000CD50CC18304600F060F804F10B00231D9A
:1047200020F00700C31A1BD05A42E25070BD8C42E1
:104730000DBF63684B686360136018BF0C46E9E700
:104740000C464968CAE7C41C24F00304A04205D003
:10475000211A304600F030F80130CDD02560D9E77D
:1047600070BD00BF1004002014040020F8B50746F7
:1047700014460E4621B91146BDE8F840FFF798BF30
:1047800022B9FFF747FF25462846F8BD00F026F876
:1047900084420FD921463846FFF78AFF0546002894
:1047A000F2D031462246FFF7F5FB31463846FFF797
:1047B00031FFE9E73546E7E738B5064C0023054603
:1047C00008462360FFF72EF9431C02D1236803B18A
:1047D0002B6038BD801800207047704751F8040CDA
:1047E0000028A0F10400BCBF0B58C018704700009F
:1047F000F8B500BFF8BC08BC9E467047F8B500BFCE
:08480000F8BC08BC9E4670479D
:10480800542530385825640074253358256400250C
:10481800303258005A0D005630360D00070D000092
:104828000000000000000001020304060708090058
:10483800A0860100400D0300801A060000350C0018
:1048480040420F0080841E0000093D0000127A00DB
:104858000024F40000366E010048E801006CDC0218
:104868000002010243444320436F6E6669670043B8
:10487800444320496E746572666163650053544D04
:104888006963726F656C656374726F6E69637300D8
:1048980053544D3332205669727475616C20436FDE
:1048A8006D506F727400303030303030303030300E
:1048B800314100232D302B2000686C4C0065666761
:1048C800454647003031323334353637383941427E
:1048D8004344454600303132333435363738396150
:0848E8006263646566000000D4
:0448F000B501000806
:0448F4009101000826
:1048F800A12A00085F2A0008A32900080000000078
:10490800DD28000863290008352900080000000098
:104918000000000000000000112900080529000817
:104928001D2900082929000809024300020100C0C6
:1049380032090400000102020100052400100105EB
:10494800240100010424020205240600010705824F
:104958000308001009040100020A0000000705010D
:1049680002400000070581024000000009024300E0
:10497800020100C0320904000001020201000524FE
:104988000010010524010001042402020524060088
:10499800010705820308001009040100020A00004B
:1049A800000705010200020007058102000200005D
:1049B8000A06000200000040010000000907430049
:1049C800020104C0320904000001020201000524AA
:1049D8000010010524010001042402020524060038
:1049E800010705820308001009040100020A0000FB
:1049F8000007050102400000070581024000000091
:104A080000093D00193B0008E13A0008E53A0008B2
:104A1800E93A00083D3E0008493E0008613E0008AA
:104A28007D3E0008993E0008B53E0008D13E0008CA
:104A3800553E0008050F0C00010710020200000097
:104A480012010102020200408304405700020102E1
:104A580003010000040309046C01002000000000A9
:104A6800000000000000000000000000000000003E
:104A7800000000000000000000000000000000002E
:104A8800000000000000000000000000000000001E
:104A9800000000000000000000000000000000000E
:104AA80000000000000000000000000000000000FE
:0C4AB800000000000000000000000000F2
:0400000508003EEDC4
:00000001FF
